{
  "_format": "hh-sol-artifact-1",
  "contractName": "MyEpicGame",
  "sourceName": "contracts/MyEpicGame.sol",
  "abi": [
    {
      "inputs": [
        {
          "internalType": "string[]",
          "name": "characterNames",
          "type": "string[]"
        },
        {
          "internalType": "string[]",
          "name": "characterImageURIs",
          "type": "string[]"
        },
        {
          "internalType": "uint256[]",
          "name": "characterHp",
          "type": "uint256[]"
        },
        {
          "internalType": "uint256[]",
          "name": "characterAttackDmg",
          "type": "uint256[]"
        },
        {
          "internalType": "string",
          "name": "bossName",
          "type": "string"
        },
        {
          "internalType": "string",
          "name": "bossImageURI",
          "type": "string"
        },
        {
          "internalType": "uint256",
          "name": "bossHp",
          "type": "uint256"
        },
        {
          "internalType": "uint256",
          "name": "bossAttackDamage",
          "type": "uint256"
        }
      ],
      "stateMutability": "nonpayable",
      "type": "constructor"
    },
    {
      "anonymous": false,
      "inputs": [
        {
          "indexed": true,
          "internalType": "address",
          "name": "owner",
          "type": "address"
        },
        {
          "indexed": true,
          "internalType": "address",
          "name": "approved",
          "type": "address"
        },
        {
          "indexed": true,
          "internalType": "uint256",
          "name": "tokenId",
          "type": "uint256"
        }
      ],
      "name": "Approval",
      "type": "event"
    },
    {
      "anonymous": false,
      "inputs": [
        {
          "indexed": true,
          "internalType": "address",
          "name": "owner",
          "type": "address"
        },
        {
          "indexed": true,
          "internalType": "address",
          "name": "operator",
          "type": "address"
        },
        {
          "indexed": false,
          "internalType": "bool",
          "name": "approved",
          "type": "bool"
        }
      ],
      "name": "ApprovalForAll",
      "type": "event"
    },
    {
      "anonymous": false,
      "inputs": [
        {
          "indexed": false,
          "internalType": "uint256",
          "name": "newBossHp",
          "type": "uint256"
        },
        {
          "indexed": false,
          "internalType": "uint256",
          "name": "newPlayerHp",
          "type": "uint256"
        }
      ],
      "name": "AttackComplete",
      "type": "event"
    },
    {
      "anonymous": false,
      "inputs": [
        {
          "indexed": false,
          "internalType": "address",
          "name": "sender",
          "type": "address"
        },
        {
          "indexed": false,
          "internalType": "uint256",
          "name": "tokenId",
          "type": "uint256"
        },
        {
          "indexed": false,
          "internalType": "uint256",
          "name": "characterIndex",
          "type": "uint256"
        }
      ],
      "name": "CharacterNFTMinted",
      "type": "event"
    },
    {
      "anonymous": false,
      "inputs": [
        {
          "indexed": true,
          "internalType": "address",
          "name": "from",
          "type": "address"
        },
        {
          "indexed": true,
          "internalType": "address",
          "name": "to",
          "type": "address"
        },
        {
          "indexed": true,
          "internalType": "uint256",
          "name": "tokenId",
          "type": "uint256"
        }
      ],
      "name": "Transfer",
      "type": "event"
    },
    {
      "inputs": [
        {
          "internalType": "address",
          "name": "to",
          "type": "address"
        },
        {
          "internalType": "uint256",
          "name": "tokenId",
          "type": "uint256"
        }
      ],
      "name": "approve",
      "outputs": [],
      "stateMutability": "nonpayable",
      "type": "function"
    },
    {
      "inputs": [],
      "name": "attackBoss",
      "outputs": [],
      "stateMutability": "nonpayable",
      "type": "function"
    },
    {
      "inputs": [
        {
          "internalType": "address",
          "name": "owner",
          "type": "address"
        }
      ],
      "name": "balanceOf",
      "outputs": [
        {
          "internalType": "uint256",
          "name": "",
          "type": "uint256"
        }
      ],
      "stateMutability": "view",
      "type": "function"
    },
    {
      "inputs": [],
      "name": "bigBoss",
      "outputs": [
        {
          "internalType": "string",
          "name": "name",
          "type": "string"
        },
        {
          "internalType": "string",
          "name": "imageURI",
          "type": "string"
        },
        {
          "internalType": "uint256",
          "name": "hp",
          "type": "uint256"
        },
        {
          "internalType": "uint256",
          "name": "maxHp",
          "type": "uint256"
        },
        {
          "internalType": "uint256",
          "name": "attackDamage",
          "type": "uint256"
        }
      ],
      "stateMutability": "view",
      "type": "function"
    },
    {
      "inputs": [],
      "name": "checkIfUserHasNFT",
      "outputs": [
        {
          "components": [
            {
              "internalType": "uint256",
              "name": "characterIndex",
              "type": "uint256"
            },
            {
              "internalType": "string",
              "name": "name",
              "type": "string"
            },
            {
              "internalType": "string",
              "name": "imageURI",
              "type": "string"
            },
            {
              "internalType": "uint256",
              "name": "hp",
              "type": "uint256"
            },
            {
              "internalType": "uint256",
              "name": "maxHp",
              "type": "uint256"
            },
            {
              "internalType": "uint256",
              "name": "attackDamage",
              "type": "uint256"
            }
          ],
          "internalType": "struct MyEpicGame.CharacterAttributes",
          "name": "",
          "type": "tuple"
        }
      ],
      "stateMutability": "view",
      "type": "function"
    },
    {
      "inputs": [],
      "name": "getAllDefaultCharacters",
      "outputs": [
        {
          "components": [
            {
              "internalType": "uint256",
              "name": "characterIndex",
              "type": "uint256"
            },
            {
              "internalType": "string",
              "name": "name",
              "type": "string"
            },
            {
              "internalType": "string",
              "name": "imageURI",
              "type": "string"
            },
            {
              "internalType": "uint256",
              "name": "hp",
              "type": "uint256"
            },
            {
              "internalType": "uint256",
              "name": "maxHp",
              "type": "uint256"
            },
            {
              "internalType": "uint256",
              "name": "attackDamage",
              "type": "uint256"
            }
          ],
          "internalType": "struct MyEpicGame.CharacterAttributes[]",
          "name": "",
          "type": "tuple[]"
        }
      ],
      "stateMutability": "view",
      "type": "function"
    },
    {
      "inputs": [
        {
          "internalType": "uint256",
          "name": "tokenId",
          "type": "uint256"
        }
      ],
      "name": "getApproved",
      "outputs": [
        {
          "internalType": "address",
          "name": "",
          "type": "address"
        }
      ],
      "stateMutability": "view",
      "type": "function"
    },
    {
      "inputs": [],
      "name": "getBigBoss",
      "outputs": [
        {
          "components": [
            {
              "internalType": "string",
              "name": "name",
              "type": "string"
            },
            {
              "internalType": "string",
              "name": "imageURI",
              "type": "string"
            },
            {
              "internalType": "uint256",
              "name": "hp",
              "type": "uint256"
            },
            {
              "internalType": "uint256",
              "name": "maxHp",
              "type": "uint256"
            },
            {
              "internalType": "uint256",
              "name": "attackDamage",
              "type": "uint256"
            }
          ],
          "internalType": "struct MyEpicGame.BigBoss",
          "name": "",
          "type": "tuple"
        }
      ],
      "stateMutability": "view",
      "type": "function"
    },
    {
      "inputs": [
        {
          "internalType": "address",
          "name": "owner",
          "type": "address"
        },
        {
          "internalType": "address",
          "name": "operator",
          "type": "address"
        }
      ],
      "name": "isApprovedForAll",
      "outputs": [
        {
          "internalType": "bool",
          "name": "",
          "type": "bool"
        }
      ],
      "stateMutability": "view",
      "type": "function"
    },
    {
      "inputs": [
        {
          "internalType": "uint256",
          "name": "_characterIndex",
          "type": "uint256"
        }
      ],
      "name": "mintCharacterNFT",
      "outputs": [],
      "stateMutability": "nonpayable",
      "type": "function"
    },
    {
      "inputs": [],
      "name": "name",
      "outputs": [
        {
          "internalType": "string",
          "name": "",
          "type": "string"
        }
      ],
      "stateMutability": "view",
      "type": "function"
    },
    {
      "inputs": [
        {
          "internalType": "uint256",
          "name": "",
          "type": "uint256"
        }
      ],
      "name": "nftHolderAttributes",
      "outputs": [
        {
          "internalType": "uint256",
          "name": "characterIndex",
          "type": "uint256"
        },
        {
          "internalType": "string",
          "name": "name",
          "type": "string"
        },
        {
          "internalType": "string",
          "name": "imageURI",
          "type": "string"
        },
        {
          "internalType": "uint256",
          "name": "hp",
          "type": "uint256"
        },
        {
          "internalType": "uint256",
          "name": "maxHp",
          "type": "uint256"
        },
        {
          "internalType": "uint256",
          "name": "attackDamage",
          "type": "uint256"
        }
      ],
      "stateMutability": "view",
      "type": "function"
    },
    {
      "inputs": [
        {
          "internalType": "address",
          "name": "",
          "type": "address"
        }
      ],
      "name": "nftHolders",
      "outputs": [
        {
          "internalType": "uint256",
          "name": "",
          "type": "uint256"
        }
      ],
      "stateMutability": "view",
      "type": "function"
    },
    {
      "inputs": [
        {
          "internalType": "uint256",
          "name": "tokenId",
          "type": "uint256"
        }
      ],
      "name": "ownerOf",
      "outputs": [
        {
          "internalType": "address",
          "name": "",
          "type": "address"
        }
      ],
      "stateMutability": "view",
      "type": "function"
    },
    {
      "inputs": [
        {
          "internalType": "address",
          "name": "from",
          "type": "address"
        },
        {
          "internalType": "address",
          "name": "to",
          "type": "address"
        },
        {
          "internalType": "uint256",
          "name": "tokenId",
          "type": "uint256"
        }
      ],
      "name": "safeTransferFrom",
      "outputs": [],
      "stateMutability": "nonpayable",
      "type": "function"
    },
    {
      "inputs": [
        {
          "internalType": "address",
          "name": "from",
          "type": "address"
        },
        {
          "internalType": "address",
          "name": "to",
          "type": "address"
        },
        {
          "internalType": "uint256",
          "name": "tokenId",
          "type": "uint256"
        },
        {
          "internalType": "bytes",
          "name": "data",
          "type": "bytes"
        }
      ],
      "name": "safeTransferFrom",
      "outputs": [],
      "stateMutability": "nonpayable",
      "type": "function"
    },
    {
      "inputs": [
        {
          "internalType": "address",
          "name": "operator",
          "type": "address"
        },
        {
          "internalType": "bool",
          "name": "approved",
          "type": "bool"
        }
      ],
      "name": "setApprovalForAll",
      "outputs": [],
      "stateMutability": "nonpayable",
      "type": "function"
    },
    {
      "inputs": [
        {
          "internalType": "bytes4",
          "name": "interfaceId",
          "type": "bytes4"
        }
      ],
      "name": "supportsInterface",
      "outputs": [
        {
          "internalType": "bool",
          "name": "",
          "type": "bool"
        }
      ],
      "stateMutability": "view",
      "type": "function"
    },
    {
      "inputs": [],
      "name": "symbol",
      "outputs": [
        {
          "internalType": "string",
          "name": "",
          "type": "string"
        }
      ],
      "stateMutability": "view",
      "type": "function"
    },
    {
      "inputs": [
        {
          "internalType": "uint256",
          "name": "_tokenId",
          "type": "uint256"
        }
      ],
      "name": "tokenURI",
      "outputs": [
        {
          "internalType": "string",
          "name": "",
          "type": "string"
        }
      ],
      "stateMutability": "view",
      "type": "function"
    },
    {
      "inputs": [
        {
          "internalType": "address",
          "name": "from",
          "type": "address"
        },
        {
          "internalType": "address",
          "name": "to",
          "type": "address"
        },
        {
          "internalType": "uint256",
          "name": "tokenId",
          "type": "uint256"
        }
      ],
      "name": "transferFrom",
      "outputs": [],
      "stateMutability": "nonpayable",
      "type": "function"
    }
  ],
  "bytecode": "0x60806040523480156200001157600080fd5b5060405162005b4e38038062005b4e833981810160405281019062000037919062000a8b565b6040518060400160405280600781526020017f4d4f5448455232000000000000000000000000000000000000000000000000008152506040518060400160405280600281526020017f4d500000000000000000000000000000000000000000000000000000000000008152508160009081620000b4919062000e4f565b508060019081620000c6919062000e4f565b5050506040518060a00160405280858152602001848152602001838152602001838152602001828152506006600082015181600001908162000109919062000e4f565b50602082015181600101908162000121919062000e4f565b50604082015181600201556060820151816003015560808201518160040155905050620002a46040518060600160405280602a815260200162005b24602a913960066000018054620001739062000c48565b80601f0160208091040260200160405190810160405280929190818152602001828054620001a19062000c48565b8015620001f25780601f10620001c657610100808354040283529160200191620001f2565b820191906000526020600020905b815481529060010190602001808311620001d457829003601f168201915b5050505050600660020154600660010180546200020f9062000c48565b80601f01602080910402602001604051908101604052809291908181526020018280546200023d9062000c48565b80156200028e5780601f1062000262576101008083540402835291602001916200028e565b820191906000526020600020905b8154815290600101906020018083116200027057829003601f168201915b50505050506200060060201b62001a9c1760201c565b60005b8851811015620005da57600c6040518060c001604052808381526020018b8481518110620002da57620002d962000f36565b5b602002602001015181526020018a8481518110620002fd57620002fc62000f36565b5b6020026020010151815260200189848151811062000320576200031f62000f36565b5b6020026020010151815260200189848151811062000343576200034262000f36565b5b6020026020010151815260200188848151811062000366576200036562000f36565b5b60200260200101518152509080600181540180825580915050600190039060005260206000209060060201600090919091909150600082015181600001556020820151816001019081620003bb919062000e4f565b506040820151816002019081620003d3919062000e4f565b50606082015181600301556080820151816004015560a0820151816005015550506000600c82815481106200040d576200040c62000f36565b5b90600052602060002090600602016040518060c001604052908160008201548152602001600182018054620004429062000c48565b80601f0160208091040260200160405190810160405280929190818152602001828054620004709062000c48565b8015620004c15780601f106200049557610100808354040283529160200191620004c1565b820191906000526020600020905b815481529060010190602001808311620004a357829003601f168201915b50505050508152602001600282018054620004dc9062000c48565b80601f01602080910402602001604051908101604052809291908181526020018280546200050a9062000c48565b80156200055b5780601f106200052f576101008083540402835291602001916200055b565b820191906000526020600020905b8154815290600101906020018083116200053d57829003601f168201915b5050505050815260200160038201548152602001600482015481526020016005820154815250509050620005c260405180606001604052806025815260200162005aff602591398260200151836060015184604001516200060060201b62001a9c1760201c565b50600181620005d2919062000f94565b9050620002a7565b50620005f2600b620006ac60201b62001b3e1760201c565b505050505050505062001094565b620006a6848484846040516024016200061d949392919062001032565b6040516020818303038152906040527f5d1a971a000000000000000000000000000000000000000000000000000000007bffffffffffffffffffffffffffffffffffffffffffffffffffffffff19166020820180517bffffffffffffffffffffffffffffffffffffffffffffffffffffffff8381831617835250505050620006c260201b60201c565b50505050565b6001816000016000828254019250508190555050565b60008151905060006a636f6e736f6c652e6c6f679050602083016000808483855afa5050505050565b6000604051905090565b600080fd5b600080fd5b600080fd5b6000601f19601f8301169050919050565b7f4e487b7100000000000000000000000000000000000000000000000000000000600052604160045260246000fd5b6200074f8262000704565b810181811067ffffffffffffffff8211171562000771576200077062000715565b5b80604052505050565b600062000786620006eb565b905062000794828262000744565b919050565b600067ffffffffffffffff821115620007b757620007b662000715565b5b602082029050602081019050919050565b600080fd5b600080fd5b600067ffffffffffffffff821115620007f057620007ef62000715565b5b620007fb8262000704565b9050602081019050919050565b60005b83811015620008285780820151818401526020810190506200080b565b60008484015250505050565b60006200084b6200084584620007d2565b6200077a565b9050828152602081018484840111156200086a5762000869620007cd565b5b6200087784828562000808565b509392505050565b600082601f830112620008975762000896620006ff565b5b8151620008a984826020860162000834565b91505092915050565b6000620008c9620008c38462000799565b6200077a565b90508083825260208201905060208402830185811115620008ef57620008ee620007c8565b5b835b818110156200093d57805167ffffffffffffffff811115620009185762000917620006ff565b5b8086016200092789826200087f565b85526020850194505050602081019050620008f1565b5050509392505050565b600082601f8301126200095f576200095e620006ff565b5b815162000971848260208601620008b2565b91505092915050565b600067ffffffffffffffff82111562000998576200099762000715565b5b602082029050602081019050919050565b6000819050919050565b620009be81620009a9565b8114620009ca57600080fd5b50565b600081519050620009de81620009b3565b92915050565b6000620009fb620009f5846200097a565b6200077a565b9050808382526020820190506020840283018581111562000a215762000a20620007c8565b5b835b8181101562000a4e578062000a398882620009cd565b84526020840193505060208101905062000a23565b5050509392505050565b600082601f83011262000a705762000a6f620006ff565b5b815162000a82848260208601620009e4565b91505092915050565b600080600080600080600080610100898b03121562000aaf5762000aae620006f5565b5b600089015167ffffffffffffffff81111562000ad05762000acf620006fa565b5b62000ade8b828c0162000947565b985050602089015167ffffffffffffffff81111562000b025762000b01620006fa565b5b62000b108b828c0162000947565b975050604089015167ffffffffffffffff81111562000b345762000b33620006fa565b5b62000b428b828c0162000a58565b965050606089015167ffffffffffffffff81111562000b665762000b65620006fa565b5b62000b748b828c0162000a58565b955050608089015167ffffffffffffffff81111562000b985762000b97620006fa565b5b62000ba68b828c016200087f565b94505060a089015167ffffffffffffffff81111562000bca5762000bc9620006fa565b5b62000bd88b828c016200087f565b93505060c062000beb8b828c01620009cd565b92505060e062000bfe8b828c01620009cd565b9150509295985092959890939650565b600081519050919050565b7f4e487b7100000000000000000000000000000000000000000000000000000000600052602260045260246000fd5b6000600282049050600182168062000c6157607f821691505b60208210810362000c775762000c7662000c19565b5b50919050565b60008190508160005260206000209050919050565b60006020601f8301049050919050565b600082821b905092915050565b60006008830262000ce17fffffffffffffffffffffffffffffffffffffffffffffffffffffffffffffffff8262000ca2565b62000ced868362000ca2565b95508019841693508086168417925050509392505050565b6000819050919050565b600062000d3062000d2a62000d2484620009a9565b62000d05565b620009a9565b9050919050565b6000819050919050565b62000d4c8362000d0f565b62000d6462000d5b8262000d37565b84845462000caf565b825550505050565b600090565b62000d7b62000d6c565b62000d8881848462000d41565b505050565b5b8181101562000db05762000da460008262000d71565b60018101905062000d8e565b5050565b601f82111562000dff5762000dc98162000c7d565b62000dd48462000c92565b8101602085101562000de4578190505b62000dfc62000df38562000c92565b83018262000d8d565b50505b505050565b600082821c905092915050565b600062000e246000198460080262000e04565b1980831691505092915050565b600062000e3f838362000e11565b9150826002028217905092915050565b62000e5a8262000c0e565b67ffffffffffffffff81111562000e765762000e7562000715565b5b62000e82825462000c48565b62000e8f82828562000db4565b600060209050601f83116001811462000ec7576000841562000eb2578287015190505b62000ebe858262000e31565b86555062000f2e565b601f19841662000ed78662000c7d565b60005b8281101562000f015784890151825560018201915060208501945060208101905062000eda565b8683101562000f21578489015162000f1d601f89168262000e11565b8355505b6001600288020188555050505b505050505050565b7f4e487b7100000000000000000000000000000000000000000000000000000000600052603260045260246000fd5b7f4e487b7100000000000000000000000000000000000000000000000000000000600052601160045260246000fd5b600062000fa182620009a9565b915062000fae83620009a9565b925082820190508082111562000fc95762000fc862000f65565b5b92915050565b600082825260208201905092915050565b600062000fed8262000c0e565b62000ff9818562000fcf565b93506200100b81856020860162000808565b620010168162000704565b840191505092915050565b6200102c81620009a9565b82525050565b600060808201905081810360008301526200104e818762000fe0565b9050818103602083015262001064818662000fe0565b905062001075604083018562001021565b818103606083015262001089818462000fe0565b905095945050505050565b614a5b80620010a46000396000f3fe608060405234801561001057600080fd5b50600436106101375760003560e01c806395d89b41116100b8578063b953084e1161007c578063b953084e14610369578063c87b56dd14610387578063c8cf27f4146103b7578063d4f24c5b146103d5578063e985e9c5146103df578063f8b81ef71461040f57610137565b806395d89b41146102bc57806398da4c95146102da578063a22cb4651461030f578063a9c326791461032b578063b88d4fde1461034d57610137565b806323b872dd116100ff57806323b872dd146101f457806342842e0e146102105780636352211e1461022c57806370a082311461025c5780637df124a11461028c57610137565b806301ffc9a71461013c5780630665f9611461016c57806306fdde031461018a578063081812fc146101a8578063095ea7b3146101d8575b600080fd5b61015660048036038101906101519190612ea7565b61042b565b6040516101639190612eef565b60405180910390f35b61017461050d565b6040516101819190613030565b60405180910390f35b610192610669565b60405161019f919061309c565b60405180910390f35b6101c260048036038101906101bd91906130ea565b6106fb565b6040516101cf9190613158565b60405180910390f35b6101f260048036038101906101ed919061319f565b610741565b005b61020e600480360381019061020991906131df565b610858565b005b61022a600480360381019061022591906131df565b6108b8565b005b610246600480360381019061024191906130ea565b6108d8565b6040516102539190613158565b60405180910390f35b61027660048036038101906102719190613232565b61095e565b604051610283919061326e565b60405180910390f35b6102a660048036038101906102a19190613232565b610a15565b6040516102b3919061326e565b60405180910390f35b6102c4610a2d565b6040516102d1919061309c565b60405180910390f35b6102f460048036038101906102ef91906130ea565b610abf565b60405161030696959493929190613289565b60405180910390f35b61032960048036038101906103249190613324565b610c0b565b005b610333610c21565b604051610344959493929190613364565b60405180910390f35b610367600480360381019061036291906134fa565b610d55565b005b610371610db7565b60405161037e91906136cf565b60405180910390f35b6103a1600480360381019061039c91906130ea565b610f62565b6040516103ae919061309c565b60405180910390f35b6103bf61117d565b6040516103cc9190613781565b60405180910390f35b6103dd611355565b005b6103f960048036038101906103f491906137a3565b6116e0565b6040516104069190612eef565b60405180910390f35b610429600480360381019061042491906130ea565b611774565b005b60007f80ac58cd000000000000000000000000000000000000000000000000000000007bffffffffffffffffffffffffffffffffffffffffffffffffffffffff1916827bffffffffffffffffffffffffffffffffffffffffffffffffffffffff191614806104f657507f5b5e139f000000000000000000000000000000000000000000000000000000007bffffffffffffffffffffffffffffffffffffffffffffffffffffffff1916827bffffffffffffffffffffffffffffffffffffffffffffffffffffffff1916145b80610506575061050582611b54565b5b9050919050565b610515612dd6565b60066040518060a001604052908160008201805461053290613812565b80601f016020809104026020016040519081016040528092919081815260200182805461055e90613812565b80156105ab5780601f10610580576101008083540402835291602001916105ab565b820191906000526020600020905b81548152906001019060200180831161058e57829003601f168201915b505050505081526020016001820180546105c490613812565b80601f01602080910402602001604051908101604052809291908181526020018280546105f090613812565b801561063d5780601f106106125761010080835404028352916020019161063d565b820191906000526020600020905b81548152906001019060200180831161062057829003601f168201915b505050505081526020016002820154815260200160038201548152602001600482015481525050905090565b60606000805461067890613812565b80601f01602080910402602001604051908101604052809291908181526020018280546106a490613812565b80156106f15780601f106106c6576101008083540402835291602001916106f1565b820191906000526020600020905b8154815290600101906020018083116106d457829003601f168201915b5050505050905090565b600061070682611bbe565b6004600083815260200190815260200160002060009054906101000a900473ffffffffffffffffffffffffffffffffffffffff169050919050565b600061074c826108d8565b90508073ffffffffffffffffffffffffffffffffffffffff168373ffffffffffffffffffffffffffffffffffffffff16036107bc576040517f08c379a00000000000000000000000000000000000000000000000000000000081526004016107b3906138b5565b60405180910390fd5b8073ffffffffffffffffffffffffffffffffffffffff166107db611c09565b73ffffffffffffffffffffffffffffffffffffffff16148061080a575061080981610804611c09565b6116e0565b5b610849576040517f08c379a000000000000000000000000000000000000000000000000000000000815260040161084090613947565b60405180910390fd5b6108538383611c11565b505050565b610869610863611c09565b82611cca565b6108a8576040517f08c379a000000000000000000000000000000000000000000000000000000000815260040161089f906139d9565b60405180910390fd5b6108b3838383611d5f565b505050565b6108d383838360405180602001604052806000815250610d55565b505050565b6000806108e483612058565b9050600073ffffffffffffffffffffffffffffffffffffffff168173ffffffffffffffffffffffffffffffffffffffff1603610955576040517f08c379a000000000000000000000000000000000000000000000000000000000815260040161094c90613a45565b60405180910390fd5b80915050919050565b60008073ffffffffffffffffffffffffffffffffffffffff168273ffffffffffffffffffffffffffffffffffffffff16036109ce576040517f08c379a00000000000000000000000000000000000000000000000000000000081526004016109c590613ad7565b60405180910390fd5b600360008373ffffffffffffffffffffffffffffffffffffffff1673ffffffffffffffffffffffffffffffffffffffff168152602001908152602001600020549050919050565b600e6020528060005260406000206000915090505481565b606060018054610a3c90613812565b80601f0160208091040260200160405190810160405280929190818152602001828054610a6890613812565b8015610ab55780601f10610a8a57610100808354040283529160200191610ab5565b820191906000526020600020905b815481529060010190602001808311610a9857829003601f168201915b5050505050905090565b600d602052806000526040600020600091509050806000015490806001018054610ae890613812565b80601f0160208091040260200160405190810160405280929190818152602001828054610b1490613812565b8015610b615780601f10610b3657610100808354040283529160200191610b61565b820191906000526020600020905b815481529060010190602001808311610b4457829003601f168201915b505050505090806002018054610b7690613812565b80601f0160208091040260200160405190810160405280929190818152602001828054610ba290613812565b8015610bef5780601f10610bc457610100808354040283529160200191610bef565b820191906000526020600020905b815481529060010190602001808311610bd257829003601f168201915b5050505050908060030154908060040154908060050154905086565b610c1d610c16611c09565b8383612095565b5050565b6006806000018054610c3290613812565b80601f0160208091040260200160405190810160405280929190818152602001828054610c5e90613812565b8015610cab5780601f10610c8057610100808354040283529160200191610cab565b820191906000526020600020905b815481529060010190602001808311610c8e57829003601f168201915b505050505090806001018054610cc090613812565b80601f0160208091040260200160405190810160405280929190818152602001828054610cec90613812565b8015610d395780601f10610d0e57610100808354040283529160200191610d39565b820191906000526020600020905b815481529060010190602001808311610d1c57829003601f168201915b5050505050908060020154908060030154908060040154905085565b610d66610d60611c09565b83611cca565b610da5576040517f08c379a0000000000000000000000000000000000000000000000000000000008152600401610d9c906139d9565b60405180910390fd5b610db184848484612201565b50505050565b6060600c805480602002602001604051908101604052809291908181526020016000905b82821015610f5957838290600052602060002090600602016040518060c001604052908160008201548152602001600182018054610e1890613812565b80601f0160208091040260200160405190810160405280929190818152602001828054610e4490613812565b8015610e915780601f10610e6657610100808354040283529160200191610e91565b820191906000526020600020905b815481529060010190602001808311610e7457829003601f168201915b50505050508152602001600282018054610eaa90613812565b80601f0160208091040260200160405190810160405280929190818152602001828054610ed690613812565b8015610f235780601f10610ef857610100808354040283529160200191610f23565b820191906000526020600020905b815481529060010190602001808311610f0657829003601f168201915b50505050508152602001600382015481526020016004820154815260200160058201548152505081526020019060010190610ddb565b50505050905090565b60606000600d60008481526020019081526020016000206040518060c001604052908160008201548152602001600182018054610f9e90613812565b80601f0160208091040260200160405190810160405280929190818152602001828054610fca90613812565b80156110175780601f10610fec57610100808354040283529160200191611017565b820191906000526020600020905b815481529060010190602001808311610ffa57829003601f168201915b5050505050815260200160028201805461103090613812565b80601f016020809104026020016040519081016040528092919081815260200182805461105c90613812565b80156110a95780601f1061107e576101008083540402835291602001916110a9565b820191906000526020600020905b81548152906001019060200180831161108c57829003601f168201915b505050505081526020016003820154815260200160048201548152602001600582015481525050905060006110e1826060015161225d565b905060006110f2836080015161225d565b905060006111038460a0015161225d565b9050600061114985602001516111188961225d565b876040015187878760405160200161113596959493929190613db9565b60405160208183030381529060405261232b565b905060008160405160200161115e9190613eaa565b6040516020818303038152906040529050809650505050505050919050565b611185612e05565b6000600e60003373ffffffffffffffffffffffffffffffffffffffff1673ffffffffffffffffffffffffffffffffffffffff168152602001908152602001600020549050600081111561134457600d60008281526020019081526020016000206040518060c00160405290816000820154815260200160018201805461120a90613812565b80601f016020809104026020016040519081016040528092919081815260200182805461123690613812565b80156112835780601f1061125857610100808354040283529160200191611283565b820191906000526020600020905b81548152906001019060200180831161126657829003601f168201915b5050505050815260200160028201805461129c90613812565b80601f01602080910402602001604051908101604052809291908181526020018280546112c890613812565b80156113155780601f106112ea57610100808354040283529160200191611315565b820191906000526020600020905b8154815290600101906020018083116112f857829003601f168201915b505050505081526020016003820154815260200160048201548152602001600582015481525050915050611352565b61134c612e05565b80925050505b90565b6000600e60003373ffffffffffffffffffffffffffffffffffffffff1673ffffffffffffffffffffffffffffffffffffffff1681526020019081526020016000205490506000600d600083815260200190815260200160002090506114686040518060600160405280603c81526020016149ea603c91398260010180546113db90613812565b80601f016020809104026020016040519081016040528092919081815260200182805461140790613812565b80156114545780601f1061142957610100808354040283529160200191611454565b820191906000526020600020905b81548152906001019060200180831161143757829003601f168201915b5050505050836003015484600501546124c2565b6115406040518060400160405280601b81526020017f426f73732025732068617320257320485020616e642025732041440000000000815250600660000180546114b190613812565b80601f01602080910402602001604051908101604052809291908181526020018280546114dd90613812565b801561152a5780601f106114ff5761010080835404028352916020019161152a565b820191906000526020600020905b81548152906001019060200180831161150d57829003601f168201915b50505050506006600201546006600401546124c2565b6000816003015411611587576040517f08c379a000000000000000000000000000000000000000000000000000000000815260040161157e90613f3e565b60405180910390fd5b6000600660020154116115cf576040517f08c379a00000000000000000000000000000000000000000000000000000000081526004016115c690613fd0565b60405180910390fd5b806005015460066002015410156115f057600060066002018190555061160f565b8060050154600660020154611605919061401f565b6006600201819055505b6006600401548160030154101561162f576000816003018190555061164d565b6006600401548160030154611644919061401f565b81600301819055505b61167460405180606001604052806025815260200161492f60259139600660020154612564565b61169a604051806060016040528060288152602001614994602891398260030154612564565b7f838ab28464562786a6c4ab2311964b82fa60bd9b14aa7e856af1f3f18d41a41460066002015482600301546040516116d4929190614053565b60405180910390a15050565b6000600560008473ffffffffffffffffffffffffffffffffffffffff1673ffffffffffffffffffffffffffffffffffffffff16815260200190815260200160002060008373ffffffffffffffffffffffffffffffffffffffff1673ffffffffffffffffffffffffffffffffffffffff16815260200190815260200160002060009054906101000a900460ff16905092915050565b6000611780600b612600565b905061178c338261260e565b6040518060c00160405280838152602001600c84815481106117b1576117b061407c565b5b906000526020600020906006020160010180546117cd90613812565b80601f01602080910402602001604051908101604052809291908181526020018280546117f990613812565b80156118465780601f1061181b57610100808354040283529160200191611846565b820191906000526020600020905b81548152906001019060200180831161182957829003601f168201915b50505050508152602001600c84815481106118645761186361407c565b5b9060005260206000209060060201600201805461188090613812565b80601f01602080910402602001604051908101604052809291908181526020018280546118ac90613812565b80156118f95780601f106118ce576101008083540402835291602001916118f9565b820191906000526020600020905b8154815290600101906020018083116118dc57829003601f168201915b50505050508152602001600c84815481106119175761191661407c565b5b9060005260206000209060060201600301548152602001600c84815481106119425761194161407c565b5b9060005260206000209060060201600401548152602001600c848154811061196d5761196c61407c565b5b906000526020600020906006020160050154815250600d60008381526020019081526020016000206000820151816000015560208201518160010190816119b49190614257565b5060408201518160020190816119ca9190614257565b50606082015181600301556080820151816004015560a08201518160050155905050611a0f6040518060600160405280602e81526020016149bc602e9139828461262c565b80600e60003373ffffffffffffffffffffffffffffffffffffffff1673ffffffffffffffffffffffffffffffffffffffff16815260200190815260200160002081905550611a5d600b611b3e565b7f4bc303fd457a97b4691b9af582ce71868a3d258638c8d4f8c60988a0f0bfb8cd338284604051611a9093929190614329565b60405180910390a15050565b611b3884848484604051602401611ab69493929190614360565b6040516020818303038152906040527f5d1a971a000000000000000000000000000000000000000000000000000000007bffffffffffffffffffffffffffffffffffffffffffffffffffffffff19166020820180517bffffffffffffffffffffffffffffffffffffffffffffffffffffffff83818316178352505050506126cb565b50505050565b6001816000016000828254019250508190555050565b60007f01ffc9a7000000000000000000000000000000000000000000000000000000007bffffffffffffffffffffffffffffffffffffffffffffffffffffffff1916827bffffffffffffffffffffffffffffffffffffffffffffffffffffffff1916149050919050565b611bc7816126f4565b611c06576040517f08c379a0000000000000000000000000000000000000000000000000000000008152600401611bfd90613a45565b60405180910390fd5b50565b600033905090565b816004600083815260200190815260200160002060006101000a81548173ffffffffffffffffffffffffffffffffffffffff021916908373ffffffffffffffffffffffffffffffffffffffff160217905550808273ffffffffffffffffffffffffffffffffffffffff16611c84836108d8565b73ffffffffffffffffffffffffffffffffffffffff167f8c5be1e5ebec7d5bd14f71427d1e84f3dd0314c0f7b2291e5b200ac8c7c3b92560405160405180910390a45050565b600080611cd6836108d8565b90508073ffffffffffffffffffffffffffffffffffffffff168473ffffffffffffffffffffffffffffffffffffffff161480611d185750611d1781856116e0565b5b80611d5657508373ffffffffffffffffffffffffffffffffffffffff16611d3e846106fb565b73ffffffffffffffffffffffffffffffffffffffff16145b91505092915050565b8273ffffffffffffffffffffffffffffffffffffffff16611d7f826108d8565b73ffffffffffffffffffffffffffffffffffffffff1614611dd5576040517f08c379a0000000000000000000000000000000000000000000000000000000008152600401611dcc9061442c565b60405180910390fd5b600073ffffffffffffffffffffffffffffffffffffffff168273ffffffffffffffffffffffffffffffffffffffff1603611e44576040517f08c379a0000000000000000000000000000000000000000000000000000000008152600401611e3b906144be565b60405180910390fd5b611e518383836001612735565b8273ffffffffffffffffffffffffffffffffffffffff16611e71826108d8565b73ffffffffffffffffffffffffffffffffffffffff1614611ec7576040517f08c379a0000000000000000000000000000000000000000000000000000000008152600401611ebe9061442c565b60405180910390fd5b6004600082815260200190815260200160002060006101000a81549073ffffffffffffffffffffffffffffffffffffffff02191690556001600360008573ffffffffffffffffffffffffffffffffffffffff1673ffffffffffffffffffffffffffffffffffffffff168152602001908152602001600020600082825403925050819055506001600360008473ffffffffffffffffffffffffffffffffffffffff1673ffffffffffffffffffffffffffffffffffffffff16815260200190815260200160002060008282540192505081905550816002600083815260200190815260200160002060006101000a81548173ffffffffffffffffffffffffffffffffffffffff021916908373ffffffffffffffffffffffffffffffffffffffff160217905550808273ffffffffffffffffffffffffffffffffffffffff168473ffffffffffffffffffffffffffffffffffffffff167fddf252ad1be2c89b69c2b068fc378daa952ba7f163c4a11628f55a4df523b3ef60405160405180910390a4612053838383600161285b565b505050565b60006002600083815260200190815260200160002060009054906101000a900473ffffffffffffffffffffffffffffffffffffffff169050919050565b8173ffffffffffffffffffffffffffffffffffffffff168373ffffffffffffffffffffffffffffffffffffffff1603612103576040517f08c379a00000000000000000000000000000000000000000000000000000000081526004016120fa9061452a565b60405180910390fd5b80600560008573ffffffffffffffffffffffffffffffffffffffff1673ffffffffffffffffffffffffffffffffffffffff16815260200190815260200160002060008473ffffffffffffffffffffffffffffffffffffffff1673ffffffffffffffffffffffffffffffffffffffff16815260200190815260200160002060006101000a81548160ff0219169083151502179055508173ffffffffffffffffffffffffffffffffffffffff168373ffffffffffffffffffffffffffffffffffffffff167f17307eab39ab6107e8899845ad3d59bd9653f200f220920489ca2b5937696c31836040516121f49190612eef565b60405180910390a3505050565b61220c848484611d5f565b61221884848484612861565b612257576040517f08c379a000000000000000000000000000000000000000000000000000000000815260040161224e906145bc565b60405180910390fd5b50505050565b60606000600161226c846129e8565b01905060008167ffffffffffffffff81111561228b5761228a6133cf565b5b6040519080825280601f01601f1916602001820160405280156122bd5781602001600182028036833780820191505090505b509050600082602001820190505b600115612320578080600190039150507f3031323334353637383961626364656600000000000000000000000000000000600a86061a8153600a8581612314576123136145dc565b5b049450600085036122cb575b819350505050919050565b60606000825190506000810361235357604051806020016040528060008152509150506124bd565b60006003600283612364919061460b565b61236e919061463f565b600461237a9190614670565b9050600060208261238b919061460b565b67ffffffffffffffff8111156123a4576123a36133cf565b5b6040519080825280601f01601f1916602001820160405280156123d65781602001600182028036833780820191505090505b5090506000604051806060016040528060408152602001614954604091399050600181016020830160005b8681101561247a5760038101905062ffffff818a015116603f8160121c168401518060081b905060ff603f83600c1c1686015116810190508060081b905060ff603f8360061c1686015116810190508060081b905060ff603f831686015116810190508060e01b90508084526004840193505050612401565b50600386066001811461249457600281146124a4576124af565b613d3d60f01b60028303526124af565b603d60f81b60018303525b508484525050819450505050505b919050565b61255e848484846040516024016124dc94939291906146b2565b6040516020818303038152906040527ff45d7d2c000000000000000000000000000000000000000000000000000000007bffffffffffffffffffffffffffffffffffffffffffffffffffffffff19166020820180517bffffffffffffffffffffffffffffffffffffffffffffffffffffffff83818316178352505050506126cb565b50505050565b6125fc828260405160240161257a929190614705565b6040516020818303038152906040527fb60e72cc000000000000000000000000000000000000000000000000000000007bffffffffffffffffffffffffffffffffffffffffffffffffffffffff19166020820180517bffffffffffffffffffffffffffffffffffffffffffffffffffffffff83818316178352505050506126cb565b5050565b600081600001549050919050565b612628828260405180602001604052806000815250612b3b565b5050565b6126c683838360405160240161264493929190614735565b6040516020818303038152906040527fca47c4eb000000000000000000000000000000000000000000000000000000007bffffffffffffffffffffffffffffffffffffffffffffffffffffffff19166020820180517bffffffffffffffffffffffffffffffffffffffffffffffffffffffff83818316178352505050506126cb565b505050565b60008151905060006a636f6e736f6c652e6c6f679050602083016000808483855afa5050505050565b60008073ffffffffffffffffffffffffffffffffffffffff1661271683612058565b73ffffffffffffffffffffffffffffffffffffffff1614159050919050565b600181111561285557600073ffffffffffffffffffffffffffffffffffffffff168473ffffffffffffffffffffffffffffffffffffffff16146127c95780600360008673ffffffffffffffffffffffffffffffffffffffff1673ffffffffffffffffffffffffffffffffffffffff16815260200190815260200160002060008282546127c1919061401f565b925050819055505b600073ffffffffffffffffffffffffffffffffffffffff168373ffffffffffffffffffffffffffffffffffffffff16146128545780600360008573ffffffffffffffffffffffffffffffffffffffff1673ffffffffffffffffffffffffffffffffffffffff168152602001908152602001600020600082825461284c919061460b565b925050819055505b5b50505050565b50505050565b60006128828473ffffffffffffffffffffffffffffffffffffffff16612b96565b156129db578373ffffffffffffffffffffffffffffffffffffffff1663150b7a026128ab611c09565b8786866040518563ffffffff1660e01b81526004016128cd94939291906147c8565b6020604051808303816000875af192505050801561290957506040513d601f19601f820116820180604052508101906129069190614829565b60015b61298b573d8060008114612939576040519150601f19603f3d011682016040523d82523d6000602084013e61293e565b606091505b506000815103612983576040517f08c379a000000000000000000000000000000000000000000000000000000000815260040161297a906145bc565b60405180910390fd5b805181602001fd5b63150b7a0260e01b7bffffffffffffffffffffffffffffffffffffffffffffffffffffffff1916817bffffffffffffffffffffffffffffffffffffffffffffffffffffffff1916149150506129e0565b600190505b949350505050565b600080600090507a184f03e93ff9f4daa797ed6e38ed64bf6a1f0100000000000000008310612a46577a184f03e93ff9f4daa797ed6e38ed64bf6a1f0100000000000000008381612a3c57612a3b6145dc565b5b0492506040810190505b6d04ee2d6d415b85acef81000000008310612a83576d04ee2d6d415b85acef81000000008381612a7957612a786145dc565b5b0492506020810190505b662386f26fc100008310612ab257662386f26fc100008381612aa857612aa76145dc565b5b0492506010810190505b6305f5e1008310612adb576305f5e1008381612ad157612ad06145dc565b5b0492506008810190505b6127108310612b00576127108381612af657612af56145dc565b5b0492506004810190505b60648310612b235760648381612b1957612b186145dc565b5b0492506002810190505b600a8310612b32576001810190505b80915050919050565b612b458383612bb9565b612b526000848484612861565b612b91576040517f08c379a0000000000000000000000000000000000000000000000000000000008152600401612b88906145bc565b60405180910390fd5b505050565b6000808273ffffffffffffffffffffffffffffffffffffffff163b119050919050565b600073ffffffffffffffffffffffffffffffffffffffff168273ffffffffffffffffffffffffffffffffffffffff1603612c28576040517f08c379a0000000000000000000000000000000000000000000000000000000008152600401612c1f906148a2565b60405180910390fd5b612c31816126f4565b15612c71576040517f08c379a0000000000000000000000000000000000000000000000000000000008152600401612c689061490e565b60405180910390fd5b612c7f600083836001612735565b612c88816126f4565b15612cc8576040517f08c379a0000000000000000000000000000000000000000000000000000000008152600401612cbf9061490e565b60405180910390fd5b6001600360008473ffffffffffffffffffffffffffffffffffffffff1673ffffffffffffffffffffffffffffffffffffffff16815260200190815260200160002060008282540192505081905550816002600083815260200190815260200160002060006101000a81548173ffffffffffffffffffffffffffffffffffffffff021916908373ffffffffffffffffffffffffffffffffffffffff160217905550808273ffffffffffffffffffffffffffffffffffffffff16600073ffffffffffffffffffffffffffffffffffffffff167fddf252ad1be2c89b69c2b068fc378daa952ba7f163c4a11628f55a4df523b3ef60405160405180910390a4612dd260008383600161285b565b5050565b6040518060a0016040528060608152602001606081526020016000815260200160008152602001600081525090565b6040518060c001604052806000815260200160608152602001606081526020016000815260200160008152602001600081525090565b6000604051905090565b600080fd5b600080fd5b60007fffffffff0000000000000000000000000000000000000000000000000000000082169050919050565b612e8481612e4f565b8114612e8f57600080fd5b50565b600081359050612ea181612e7b565b92915050565b600060208284031215612ebd57612ebc612e45565b5b6000612ecb84828501612e92565b91505092915050565b60008115159050919050565b612ee981612ed4565b82525050565b6000602082019050612f046000830184612ee0565b92915050565b600081519050919050565b600082825260208201905092915050565b60005b83811015612f44578082015181840152602081019050612f29565b60008484015250505050565b6000601f19601f8301169050919050565b6000612f6c82612f0a565b612f768185612f15565b9350612f86818560208601612f26565b612f8f81612f50565b840191505092915050565b6000819050919050565b612fad81612f9a565b82525050565b600060a0830160008301518482036000860152612fd08282612f61565b91505060208301518482036020860152612fea8282612f61565b9150506040830151612fff6040860182612fa4565b5060608301516130126060860182612fa4565b5060808301516130256080860182612fa4565b508091505092915050565b6000602082019050818103600083015261304a8184612fb3565b905092915050565b600082825260208201905092915050565b600061306e82612f0a565b6130788185613052565b9350613088818560208601612f26565b61309181612f50565b840191505092915050565b600060208201905081810360008301526130b68184613063565b905092915050565b6130c781612f9a565b81146130d257600080fd5b50565b6000813590506130e4816130be565b92915050565b600060208284031215613100576130ff612e45565b5b600061310e848285016130d5565b91505092915050565b600073ffffffffffffffffffffffffffffffffffffffff82169050919050565b600061314282613117565b9050919050565b61315281613137565b82525050565b600060208201905061316d6000830184613149565b92915050565b61317c81613137565b811461318757600080fd5b50565b60008135905061319981613173565b92915050565b600080604083850312156131b6576131b5612e45565b5b60006131c48582860161318a565b92505060206131d5858286016130d5565b9150509250929050565b6000806000606084860312156131f8576131f7612e45565b5b60006132068682870161318a565b93505060206132178682870161318a565b9250506040613228868287016130d5565b9150509250925092565b60006020828403121561324857613247612e45565b5b60006132568482850161318a565b91505092915050565b61326881612f9a565b82525050565b6000602082019050613283600083018461325f565b92915050565b600060c08201905061329e600083018961325f565b81810360208301526132b08188613063565b905081810360408301526132c48187613063565b90506132d3606083018661325f565b6132e0608083018561325f565b6132ed60a083018461325f565b979650505050505050565b61330181612ed4565b811461330c57600080fd5b50565b60008135905061331e816132f8565b92915050565b6000806040838503121561333b5761333a612e45565b5b60006133498582860161318a565b925050602061335a8582860161330f565b9150509250929050565b600060a082019050818103600083015261337e8188613063565b905081810360208301526133928187613063565b90506133a1604083018661325f565b6133ae606083018561325f565b6133bb608083018461325f565b9695505050505050565b600080fd5b600080fd5b7f4e487b7100000000000000000000000000000000000000000000000000000000600052604160045260246000fd5b61340782612f50565b810181811067ffffffffffffffff82111715613426576134256133cf565b5b80604052505050565b6000613439612e3b565b905061344582826133fe565b919050565b600067ffffffffffffffff821115613465576134646133cf565b5b61346e82612f50565b9050602081019050919050565b82818337600083830152505050565b600061349d6134988461344a565b61342f565b9050828152602081018484840111156134b9576134b86133ca565b5b6134c484828561347b565b509392505050565b600082601f8301126134e1576134e06133c5565b5b81356134f184826020860161348a565b91505092915050565b6000806000806080858703121561351457613513612e45565b5b60006135228782880161318a565b94505060206135338782880161318a565b9350506040613544878288016130d5565b925050606085013567ffffffffffffffff81111561356557613564612e4a565b5b613571878288016134cc565b91505092959194509250565b600081519050919050565b600082825260208201905092915050565b6000819050602082019050919050565b600060c0830160008301516135c16000860182612fa4565b50602083015184820360208601526135d98282612f61565b915050604083015184820360408601526135f38282612f61565b91505060608301516136086060860182612fa4565b50608083015161361b6080860182612fa4565b5060a083015161362e60a0860182612fa4565b508091505092915050565b600061364583836135a9565b905092915050565b6000602082019050919050565b60006136658261357d565b61366f8185613588565b93508360208202850161368185613599565b8060005b858110156136bd578484038952815161369e8582613639565b94506136a98361364d565b925060208a01995050600181019050613685565b50829750879550505050505092915050565b600060208201905081810360008301526136e9818461365a565b905092915050565b600060c0830160008301516137096000860182612fa4565b50602083015184820360208601526137218282612f61565b9150506040830151848203604086015261373b8282612f61565b91505060608301516137506060860182612fa4565b5060808301516137636080860182612fa4565b5060a083015161377660a0860182612fa4565b508091505092915050565b6000602082019050818103600083015261379b81846136f1565b905092915050565b600080604083850312156137ba576137b9612e45565b5b60006137c88582860161318a565b92505060206137d98582860161318a565b9150509250929050565b7f4e487b7100000000000000000000000000000000000000000000000000000000600052602260045260246000fd5b6000600282049050600182168061382a57607f821691505b60208210810361383d5761383c6137e3565b5b50919050565b7f4552433732313a20617070726f76616c20746f2063757272656e74206f776e6560008201527f7200000000000000000000000000000000000000000000000000000000000000602082015250565b600061389f602183613052565b91506138aa82613843565b604082019050919050565b600060208201905081810360008301526138ce81613892565b9050919050565b7f4552433732313a20617070726f76652063616c6c6572206973206e6f7420746f60008201527f6b656e206f776e6572206f7220617070726f76656420666f7220616c6c000000602082015250565b6000613931603d83613052565b915061393c826138d5565b604082019050919050565b6000602082019050818103600083015261396081613924565b9050919050565b7f4552433732313a2063616c6c6572206973206e6f7420746f6b656e206f776e6560008201527f72206f7220617070726f76656400000000000000000000000000000000000000602082015250565b60006139c3602d83613052565b91506139ce82613967565b604082019050919050565b600060208201905081810360008301526139f2816139b6565b9050919050565b7f4552433732313a20696e76616c696420746f6b656e2049440000000000000000600082015250565b6000613a2f601883613052565b9150613a3a826139f9565b602082019050919050565b60006020820190508181036000830152613a5e81613a22565b9050919050565b7f4552433732313a2061646472657373207a65726f206973206e6f74206120766160008201527f6c6964206f776e65720000000000000000000000000000000000000000000000602082015250565b6000613ac1602983613052565b9150613acc82613a65565b604082019050919050565b60006020820190508181036000830152613af081613ab4565b9050919050565b600081905092915050565b7f7b226e616d65223a202200000000000000000000000000000000000000000000600082015250565b6000613b38600a83613af7565b9150613b4382613b02565b600a82019050919050565b6000613b5982612f0a565b613b638185613af7565b9350613b73818560208601612f26565b80840191505092915050565b7f202d2d204e465420233a20000000000000000000000000000000000000000000600082015250565b6000613bb5600b83613af7565b9150613bc082613b7f565b600b82019050919050565b7f222c20226465736372697074696f6e223a2022416e2065706963204e4654222c60008201527f2022696d616765223a2022697066733a2f2f0000000000000000000000000000602082015250565b6000613c27603283613af7565b9150613c3282613bcb565b603282019050919050565b7f222c202261747472696275746573223a205b207b202274726169745f7479706560008201527f223a20224865616c746820506f696e7473222c202276616c7565223a20000000602082015250565b6000613c99603d83613af7565b9150613ca482613c3d565b603d82019050919050565b7f2c20226d61785f76616c7565223a000000000000000000000000000000000000600082015250565b6000613ce5600e83613af7565b9150613cf082613caf565b600e82019050919050565b7f7d2c207b202274726169745f74797065223a202241747461636b2044616d616760008201527f65222c202276616c7565223a2000000000000000000000000000000000000000602082015250565b6000613d57602d83613af7565b9150613d6282613cfb565b602d82019050919050565b7f7d205d7d00000000000000000000000000000000000000000000000000000000600082015250565b6000613da3600483613af7565b9150613dae82613d6d565b600482019050919050565b6000613dc482613b2b565b9150613dd08289613b4e565b9150613ddb82613ba8565b9150613de78288613b4e565b9150613df282613c1a565b9150613dfe8287613b4e565b9150613e0982613c8c565b9150613e158286613b4e565b9150613e2082613cd8565b9150613e2c8285613b4e565b9150613e3782613d4a565b9150613e438284613b4e565b9150613e4e82613d96565b9150819050979650505050505050565b7f646174613a6170706c69636174696f6e2f6a736f6e3b6261736536342c000000600082015250565b6000613e94601d83613af7565b9150613e9f82613e5e565b601d82019050919050565b6000613eb582613e87565b9150613ec18284613b4e565b915081905092915050565b7f4572726f723a20636861726163746572206d757374206861766520485020746f60008201527f2061747461636b20626f73732e00000000000000000000000000000000000000602082015250565b6000613f28602d83613052565b9150613f3382613ecc565b604082019050919050565b60006020820190508181036000830152613f5781613f1b565b9050919050565b7f4572726f723a20626f7373206d757374206861766520485020746f206174746160008201527f636b20636861726163746572732e000000000000000000000000000000000000602082015250565b6000613fba602e83613052565b9150613fc582613f5e565b604082019050919050565b60006020820190508181036000830152613fe981613fad565b9050919050565b7f4e487b7100000000000000000000000000000000000000000000000000000000600052601160045260246000fd5b600061402a82612f9a565b915061403583612f9a565b925082820390508181111561404d5761404c613ff0565b5b92915050565b6000604082019050614068600083018561325f565b614075602083018461325f565b9392505050565b7f4e487b7100000000000000000000000000000000000000000000000000000000600052603260045260246000fd5b60008190508160005260206000209050919050565b60006020601f8301049050919050565b600082821b905092915050565b60006008830261410d7fffffffffffffffffffffffffffffffffffffffffffffffffffffffffffffffff826140d0565b61411786836140d0565b95508019841693508086168417925050509392505050565b6000819050919050565b600061415461414f61414a84612f9a565b61412f565b612f9a565b9050919050565b6000819050919050565b61416e83614139565b61418261417a8261415b565b8484546140dd565b825550505050565b600090565b61419761418a565b6141a2818484614165565b505050565b5b818110156141c6576141bb60008261418f565b6001810190506141a8565b5050565b601f82111561420b576141dc816140ab565b6141e5846140c0565b810160208510156141f4578190505b614208614200856140c0565b8301826141a7565b50505b505050565b600082821c905092915050565b600061422e60001984600802614210565b1980831691505092915050565b6000614247838361421d565b9150826002028217905092915050565b61426082612f0a565b67ffffffffffffffff811115614279576142786133cf565b5b6142838254613812565b61428e8282856141ca565b600060209050601f8311600181146142c157600084156142af578287015190505b6142b9858261423b565b865550614321565b601f1984166142cf866140ab565b60005b828110156142f7578489015182556001820191506020850194506020810190506142d2565b868310156143145784890151614310601f89168261421d565b8355505b6001600288020188555050505b505050505050565b600060608201905061433e6000830186613149565b61434b602083018561325f565b614358604083018461325f565b949350505050565b6000608082019050818103600083015261437a8187613063565b9050818103602083015261438e8186613063565b905061439d604083018561325f565b81810360608301526143af8184613063565b905095945050505050565b7f4552433732313a207472616e736665722066726f6d20696e636f72726563742060008201527f6f776e6572000000000000000000000000000000000000000000000000000000602082015250565b6000614416602583613052565b9150614421826143ba565b604082019050919050565b6000602082019050818103600083015261444581614409565b9050919050565b7f4552433732313a207472616e7366657220746f20746865207a65726f2061646460008201527f7265737300000000000000000000000000000000000000000000000000000000602082015250565b60006144a8602483613052565b91506144b38261444c565b604082019050919050565b600060208201905081810360008301526144d78161449b565b9050919050565b7f4552433732313a20617070726f766520746f2063616c6c657200000000000000600082015250565b6000614514601983613052565b915061451f826144de565b602082019050919050565b6000602082019050818103600083015261454381614507565b9050919050565b7f4552433732313a207472616e7366657220746f206e6f6e20455243373231526560008201527f63656976657220696d706c656d656e7465720000000000000000000000000000602082015250565b60006145a6603283613052565b91506145b18261454a565b604082019050919050565b600060208201905081810360008301526145d581614599565b9050919050565b7f4e487b7100000000000000000000000000000000000000000000000000000000600052601260045260246000fd5b600061461682612f9a565b915061462183612f9a565b925082820190508082111561463957614638613ff0565b5b92915050565b600061464a82612f9a565b915061465583612f9a565b925082614665576146646145dc565b5b828204905092915050565b600061467b82612f9a565b915061468683612f9a565b925082820261469481612f9a565b915082820484148315176146ab576146aa613ff0565b5b5092915050565b600060808201905081810360008301526146cc8187613063565b905081810360208301526146e08186613063565b90506146ef604083018561325f565b6146fc606083018461325f565b95945050505050565b6000604082019050818103600083015261471f8185613063565b905061472e602083018461325f565b9392505050565b6000606082019050818103600083015261474f8186613063565b905061475e602083018561325f565b61476b604083018461325f565b949350505050565b600081519050919050565b600082825260208201905092915050565b600061479a82614773565b6147a4818561477e565b93506147b4818560208601612f26565b6147bd81612f50565b840191505092915050565b60006080820190506147dd6000830187613149565b6147ea6020830186613149565b6147f7604083018561325f565b8181036060830152614809818461478f565b905095945050505050565b60008151905061482381612e7b565b92915050565b60006020828403121561483f5761483e612e45565b5b600061484d84828501614814565b91505092915050565b7f4552433732313a206d696e7420746f20746865207a65726f2061646472657373600082015250565b600061488c602083613052565b915061489782614856565b602082019050919050565b600060208201905081810360008301526148bb8161487f565b9050919050565b7f4552433732313a20746f6b656e20616c7265616479206d696e74656400000000600082015250565b60006148f8601c83613052565b9150614903826148c2565b602082019050919050565b60006020820190508181036000830152614927816148eb565b905091905056fe506c617965722061747461636b656420626f73732e204e657720626f73732068703a2025734142434445464748494a4b4c4d4e4f505152535455565758595a6162636465666768696a6b6c6d6e6f707172737475767778797a303132333435363738392b2f426f73732061747461636b656420706c617965722e204e657720706c617965722068703a2025730a4d696e746564204e465420772f20746f6b656e496420257320616e6420636861726163746572496e6465782025730a506c6179657220772f206368617261637465722025732061626f757420746f2061747461636b2e2048617320257320485020616e64202573204144a26469706673582212205c968b7a34c3e3e0a15aea95d73974e97fd472e8d1bb70096216073289ac4d8564736f6c63430008110033446f6e6520696e697469616c697a696e6720257320772f2048502025732c20696d67202573446f6e6520696e697469616c697a696e6720626f737320257320772f2048502025732c20696d67202573",
  "linkReferences": {},
  "deployedLinkReferences": {}
}